S01800004763634170706C69636174696F6E31382E7372656322
S1130000F1C000000EC100000CC100000AC10000D4
S113001008C1000006C1000004C1000002C10000C4
S113002000C10000FEC00000FCC00000FAC00000D7
S1130030F8C00000F6C00000F4C00000F2C00000E8
S1130040F0C00000EEC00000ECC00000EAC00000F8
S1130050E8C00000E6C00000E4C00000E2C0000008
S1130060E0C00000DEC00000DCC00000DAC0000018
S1130070D8C00000D6C00000D4C00000D2C0000028
S1130080D0C00000CEC00000CCC00000CAC0000038
S1130090C8C00000C6C00000C4C00000C2C0000048
S11300A0C0C00000BEC00000BCC00000BAC0000058
S11300B0B8C00000B6C00000B4C00000B2C0000068
S11300C0B0C00000AEC00000ACC00000AAC0000078
S11300D0A8C00000A6C00000A4C00000A2C0000088
S11300E0A0C0000087018F018F018F0189018F015A
S11300F08B018D018F018F018F018F018F018F0182
S11301008F018F018F018F018F018F018F018F016B
S11301108F018F018F018F018F018F018F018F015B
S11301208F018F018F018F018F018F018F018F014B
S11301308F018F018F018F018F018F018F018F013B
S11301408F018F018F018F018F018F018F018F012B
S11301508F018F018F018F018F018F018F018F011B
S11301608F018F017F018F018F018F0181018F0129
S1130170830185018F018F018F018F018F018F0111
S11301808F018F018F018F018F018F018F018F01EB
S11301908F018F018F018F018F018F018F018F01DB
S11301A08F018F0177018F018F018F0179018F01F9
S11301B07B017D018F018F018F018F018F018F01E1
S11301C08F018F0171018F018F018F0191018F01C7
S11301D073017501F30317042C04410456046804E5
S11301E072047C0411241FBECFEFD1E2DEBFCDBF69
S11301F000E00CBF13E0A0E0B2E0E2E7FFE000E0C3
S11302000BBF02C007900D92AC34B107D9F723E0BD
S1130210ACE4B3E001C01D92AA35B207E1F73AD6C7
S1130220A6C6EECE20E09FEE10C090930801E9EF41
S1130230F0E03197F1F700C00000809106018F7063
S11302408F3029F4990F9F5F2F5F243070F3907FD4
S1130250890F089580EF8093070108958FE08093BC
S11302600801809106018F708F30C1F789EF90E00B
S11302700197F1F700C000008FE08093080180919E
S113028006018F708F3051F708958FE08093080135
S1130290809106018F708F30C1F389EF90E0019750
S11302A0F1F700C000008FE08093080180910601FF
S11302B08F708F3051F30895D1DF89EF90E001976B
S11302C0F1F700C00000E1DFADDF90E0FC01E7578B
S11302D0F109E837F10518F58827EE58FF4F8F4FDD
S11302E00BC68AE2089584E3089581E3089580E3C8
S11302F0089588E3089585E3089582E3089583E2E9
S1130300089589E3089586E3089583E3089584E4D2
S1130310089583E4089582E4089581E408958AE7C2
S1130320089587E3089585B1806285B9000085B199
S11303308F7D85B90895CF93C82F662331F0E2E00D
S1130340F1E080818064808305C0E2E0F1E0808197
S11303508F7B808385B18F7E85B98DB180628DB9A5
S113036083B3806283BB8DB188608DB9E1E0F1E035
S1130370808188608083E2E0F1E08081877F8083F0
S11303808EB1877F8EB984B38F7D84BB8EB18F7D10
S11303908EB9CC231CF4808188608083C6FF03C09F
S11303A08EB188608EB9C5FF03C084B3806284BBFC
S11303B0C4FF03C08EB180628EB9B5DFE2E0F1E024
S11303C08081877F80838EB1877F8EB984B38F7D50
S11303D084BB8EB18F7D8EB9C3FF03C080818860DA
S11303E08083C2FF03C08EB188608EB9C1FF03C091
S11303F084B3806284BBC0FF03C08EB180628EB9B7
S113040092DF8EB180628EB984B3806284BB8EB178
S113041088608EB9E2E0F1E0808188608083CF91CA
S11304200895882331F0E2E0F1E0808180648083E4
S113043005C0E2E0F1E080818F7B808385B180613B
S113044085B98DB18F7D8DB983B38F7D83BB8DB11C
S1130450877F8DB9E1E0F1E08081877F808385B17A
S1130460806285B90000659902C080E001C080E126
S113047095998062639980649091000193FD8068EE
S113048095B19F7D95B9000095B1906295B9000032
S11304906599816095998260639984609091000167
S11304A093FD886095B19F7D95B9089580E0B9DF8B
S11304B08823E4F300C000C080E0B3CF0895CF9355
S11304C0C82FF4DF60E08C2F36DFCF9108956111DF
S11304D003C08058F4CF08958054F1CF089581E08B
S11304E0EECF0895CF93C82FE1DFCA3041F48034B2
S11304F010F480E401C080E08058E1DF03C061E0D3
S11305008C2F19DFCF910895CF93DF93FC0102C0A4
S1130510E9DFFE01EF01219680818111F9CFDF919E
S1130520CF910895CF93C82FE1E0F1E080818064FA
S1130530808384B1806184B984B1806284B98DB1CF
S113054080628DB983B3806283BB8DB188608DB9BD
S11305508081886080838FE99FE00197F1F700C074
S1130560000084B3806284BB8EB180628EB9DBDE0E
S113057081EE94E00197F1F700C00000D4DE95E12C
S11305809A95F1F70000CFDE85E18A95F1F7000036
S11305908EB18F7D8EB9C7DE95E19A95F1F7000093
S11305A088E28DDF88E08BDF9ADF86E088DF8C2F9E
S11305B086DFCF91089583B1829586958695837061
S11305C091E08927817008951092B90088E480939E
S11305D0B80084E08093BC00089584EA8093BC0052
S11305E08091BC008823E4F7089584E98093BC00DB
S11305F08FE99FE00197F1F700C000000895809310
S1130600BB0084E88093BC008091BC008823E4F79D
S1130610089584EC8093BC008091BC008823E4F7A7
S11306208091BB00089584E88093BC008091BC0055
S11306308823E4F78091BB000895CF93DF93CDDF47
S113064080E2DDDF8BE0DBDF80E0D9DFCEDF2FEF80
S113065080E792E0215080409040E1F700C0000024
S1130660BCDF81E2CCDFD5DFD82FDDDFC82FBDDFD3
S11306708C2F90E0982F88278D2BDF91CF910895B0
S1130680CF93DF93D82FC62F85B1806885B9A5DFB6
S113069080E28093BB0084E88093BC008091BC001E
S11306A08823E4F78091B900887F883149F09DDF81
S11306B085B18F7785B981E080934F0380E019C0BD
S11306C0D093BB0084E88093BC008091BC00882355
S11306D0E4F7C093BB0084E88093BC008091BC0025
S11306E08823E4F782DF85B18F7785B910924F03B1
S11306F081E0DF91CF910895DFDD8F3F51F02FEF3F
S113070039EF90E0215030409040E1F700C0000004
S113071008958FEF089520E019C095B1906895B9B8
S11307203FEF43EC99E0315040409040E1F700C086
S1130730000095B19F7795B93FEF43EC99E03150B4
S113074040409040E1F700C000002F5F281728F3D5
S1130750089580E006C0E82FF0E0EC5AFC4F1082C8
S11307608F5F8330C0F31092530308958091530335
S1130770882389F080915303813019F480915403C4
S11307800895E4E5F3E080819181880F282F220FFA
S1130790220F820F890F0895CF93DF9300D01F9209
S11307A01F92CDB7DEB79BDE80914F03882371F093
S11307B080E092E0A9DE2FEF89E698E121508040A5
S11307C09040E1F700C0000010924F03809159035C
S11307D090E08830910508F098C0FC018827E65124
S11307E0FF4F8F4F89C38BE092E08EDE61E080E0A3
S11307F06EDE80915303882359F0B8DF4AE0BE01CE
S11308006F5F7F4F90E080D3CE0101967DDE7DC087
S113081089E192E079DE809158034AE0BE016F5F7E
S11308207F4F90E071D3CE0101966EDE6EC083E2FD
S113083092E06ADE61E080E04ADE8CE292E064DE0F
S1130840809158034AE0BE016F5F7F4F90E05CD314
S1130850CE01019659DE59C084E392E055DE61E091
S113086080E035DE8CE292E04FDE809158034AE06E
S1130870BE016F5F7F4F90E047D3CE01019644DE07
S113088044C08CE292E040DE809158034AE0BE010D
S11308906F5F7F4F90E038D3CE01019635DE61E083
S11308A080E015DE8FE392E02FDE2FC08CE492E02F
S11308B02BDE61E080E00BDE80915103811104C0E6
S11308C086E592E021DE21C085E692E01DDE1DC0B2
S11308D085E792E019DE61E080E0F9DD8BE792E0E4
S11308E013DE13C08CE892E00FDE61E080E0EFDD00
S11308F088E992E009DE09C082EA92E005DE61E05F
S113090080E0E5DD8EEA92E0FFDD0F900F900F901E
S11309100F900F90DF91CF91089560E08AE0B0DEF0
S11309203BCF0895809359038330F9F028F4813044
S113093059F0823069F005C0853089F068F086305E
S113094089F060E080E013C06091570381E00FC03C
S11309506091570382E00BC060E085E008C060E06E
S113096086E005C060E08AE002C061E083E088DEE2
S113097013CF089584B1806884B985B18F7785B920
S113098010925203109251031092500310924E038E
S113099081E0C1DE8CE0C6DDA2DD8DEB92E0B4DD4A
S11309A061E080E094DD8DEC92E0AEDD2FEF83ED2D
S11309B090E3215080409040E1F700C000004ADC01
S11309C08EDD8DED92E0A0DD2FEF89E698E12150D8
S11309D080409040E1F700C0000084B18F7B84B96F
S11309E07EDD8AEE92E090DD61E080E070DDE3DDA3
S11309F0882331F086EF92E087DD83E08CDE03C04C
S1130A0086E093E081DD2FEF83ED90E32150804079
S1130A109040E1F700C00000D7DD61DD83E193E0A1
S1130A2073DD2FEF89E698E1215080409040E1F793
S1130A3000C00000789460E080E022DE882371F03A
S1130A404EDD8DE193E060DD2FEF89E698E12150E2
S1130A5080409040E1F700C0000013C040DD8DE20B
S1130A6093E052DD61E080E032DD8AE393E04CDD27
S1130A702FEF87EA91E6215080409040E1F700C0D3
S1130A80000080E04FCF08958F3F09F4DEC095B198
S1130A90906895B92FEF30E792E0215030409040B4
S1130AA0E1F700C0000095B19F7795B99091590383
S1130AB0943009F455C0963009F4BEC09111C5C0F4
S1130AC090ED980F9A3080F420915303223060F413
S1130AD0E091530381E08E0F80935303F0E0EC5ACE
S1130AE0FC4F908359CE08958A32A1F59091530317
S1130AF0992381F13BDE8093570380915703811141
S1130B0013C080915303823079F48091540381118E
S1130B100BC080915503811107C081E080934E037F
S1130B2086E000DF16CE0895909157038091580314
S1130B30981303C085E0F6DE0BC0909157038091B3
S1130B405803891718F481E0EDDE02C082E0EADE82
S1130B5000CE0895833209F078C0FBDD1DCE0895E0
S1130B608A3249F590915103911125C081E0809317
S1130B7051038093500361E083E082DD2FEF31EE77
S1130B8084E0215030408040E1F700C0000061E083
S1130B9083E076DD9FEF21EE34E091502040304039
S1130BA0E1F700C0000061E083E06ADD61E087E016
S1130BB067DDF2CD0895833209F047C08091510377
S1130BC0882309F442C060E088E05ADD8FEF99E69B
S1130BD028E1815090402040E1F700C0000060E02F
S1130BE084E04EDD3FEF81EE94E031508040904050
S1130BF0E1F700C0000060E084E042DD2FEF31EE59
S1130C0084E0215030408040E1F700C0000060E003
S1130C1084E036DD10925103109250039FEF23EDD0
S1130C2030E3915020403040E1F700C000001092C2
S1130C30520380E077CE08958A3239F410924E033D
S1130C4060E080E01DDD80E06DCE089584E06ADE22
S1130C5060E085E015DD2FEF81EE94E021508040C7
S1130C609040E1F700C0000060E085E009DD1092EB
S1130C7051031092500390CD0895CF93809159035E
S1130C80813021F080915903823011F5D6DC9093A4
S1130C904D0380934C0380914C0390914D034497F2
S1130CA0B8F480914C0390914D03892B89F0C09145
S1130CB0590387E037DE70DD2FEF8BE792E921508F
S1130CC080409040E1F700C000008C2F2BDE64DDF3
S1130CD0CF910895CF93DF9300D01F921F92CDB789
S1130CE0DEB7CBDF68DC882331F081E080935203E8
S1130CF085B1806885B980915203882311F0A6DFFD
S1130D00C1C080915903873009F4BCC08091590354
S1130D108130A1F59091580380915703981770F58D
S1130D202FEF83ED90E3215080409040E1F700C025
S1130D300000809158038F5F809358039EDF809159
S1130D405903873009F49EC0CADB83E292E0DCDBFE
S1130D5061E080E0BCDB8CE292E0D6DB809158035A
S1130D604AE0BE016F5F7F4F90E0CED0CE01019686
S1130D70CBDB6091580381E083DC37C08091590359
S1130D80823099F59091580380915703891768F53B
S1130D902FEF83ED90E3215080409040E1F700C0B5
S1130DA000008091580381508093580366DF80913E
S1130DB05903873009F466C092DB84E392E0A4DB34
S1130DC061E080E084DB8CE292E09EDB809158035A
S1130DD04AE0BE016F5F7F4F90E096D0CE0101964E
S1130DE093DB6091580382E04BDC9091580380912F
S1130DF05703981347C06091580389E041DC83E0AE
S1130E0091DD61E083E03CDC2FEF81EE94E0215042
S1130E1080409040E1F700C0000061E083E030DCF6
S1130E202FEF81EE94E0215080409040E1F700C024
S1130E30000061E083E024DC2FEF83E294EF215093
S1130E4080409040E1F700C0000060E084E018DCDE
S1130E502FEF81EE94E0215080409040E1F700C0F4
S1130E60000060E084E00CDC2FEF81EE94E0215080
S1130E7080409040E1F700C0000060E084E000DCC6
S1130E8080E050DD0F900F900F900F900F90DF9146
S1130E90CF9108956FDD10925203809159038630EB
S1130EA011F43BDD0AC080915903813021F0809117
S1130EB05903823011F40EDFF0CF1EDC8F3F51F066
S1130EC0E3DD2FEF84E39CE0215080409040E1F784
S1130ED000C00000809159038530F9F683E01BDCE3
S1130EE02FEF87EA91E6215080409040E1F700C05F
S1130EF0000080E017DDD1CFEE0FFF1F881F8BBFEE
S1130F000790F691E02D1994BB274A3031F49923C8
S1130F1022F4BDE2909581959F4F01C0BB27FB0150
S1130F205527AA27880F991FAA1FA41710F0A41BDE
S1130F3083955051B9F7A05DAA3308F0A95DA19338
S1130F40009779F7B111B1931192CB0100C0DC0184
S1130F50FC01672F71917723E1F7329704C07C91EC
S1130F606D9370836291AE17BF07C8F30895F89428
S1050F70FFCFAD
S1130F72493243204572726F72210043686F6F7366
S1130F826520666C6F6F723A0043757272656E7497
S1130F923A2000476F696E6720757000466C6F6F68
S1130FA2723A2000476F696E6720646F776E00445F
S1130FB26F6F72206973206F70656E00454D4552E4
S1130FC247454E4359002A20746F206F70656E2086
S1130FD2646F6F72002320746F2073746F702061CA
S1130FE26C61726D004552524F5200416C726561E0
S1130FF2647920617420666C6F6F72004D61696E52
S113100274656E616E6365002A20746F2065786969
S113101274004F42535452554354494F4E00506C3E
S11310226561736520776169742E2E2E00456C65A7
S11310327661746F722053797374656D00496E69B9
S11310427469616C697A696E672E2E2E004B65791C
S113105270616420526561647900427574746F6EC4
S1131062207465737400427574746F6E20707265B7
S1131072737365642100427574746F6E20726561C6
S113108264790049324320526561647900536C618A
S1131092766520436F6E6E656374656400536C619C
S11310A27665204572726F722100436865636B2016
S10F10B2636F6E6E656374696F6E73008B
S9030000FC
