S01800004763634170706C69636174696F6E31392E7372656321
S11300000C9447000C9464000C9464000C946400F9
S11300100C9464000C9464000C9464000C946400CC
S11300200C9464000C9464000C9464000C946600BA
S11300300C9464000C9464000C9464000C946400AC
S11300400C9464000C9464000C9464000C9464009C
S11300500C9464000C9464000C9464000C9464008C
S11300600C94AF020C9464008900A200B300CC008D
S1130070DD00FE000E01260179037F037F03830365
S113008087038B039203960399039C03C2031124F1
S11300901FBECFEFD8E0DEBFCDBF11E0A0E0B1E0DE
S11300A0EAE0F8E002C005900D92A230B107D9F75A
S11300B021E0A2E0B1E001C01D92AE30B207E1F749
S11300C00E94C8030C9403040C9400001F920F9226
S11300D00FB60F9211242F938F939F93AF93BF93D7
S11300E0EF93FF9380910501882309F4D6C0809192
S11300F00A01882309F4D1C0E09106018E2F90E013
S11301008830910508F0BBC0FC01EC5CFF4F0C94F7
S1130110EE0380910401811104C085B1846085B926
S113012003C085B18B7F85B9809103018F5F809374
S113013003018A3008F4A3C01092030181E0809384
S113014006019DC085B18B7F85B9809103018F5FC6
S113015080930301853008F492C01092030182E079
S1130160809306018CC080910401811104C085B183
S1130170846085B903C085B18B7F85B98091030103
S11301808F5F809303018F3008F479C010920301CC
S113019083E08093060173C085B18B7F85B980911C
S11301A003018F5F80930301853008F468C01092C7
S11301B0030184E08093060162C0909104018BEAFC
S11301C0989F812D11248695282F220F820F981332
S11301D004C085B1846085B903C085B18B7F85B9BE
S11301E0809103018F5F80930301843108F447C039
S11301F01092030185E08093060141C085B18B7F95
S113020085B9809103018F5F809303018530B8F134
S11302101092030186E08093060131C080910401AD
S1130220811104C085B1846085B903C085B18B7F19
S113023085B9809103018F5F809303018E31F8F0BB
S11302401092030187E08093060119C085B18B7F6A
S113025085B980910001882371F0109206011092F3
S113026003012FEF83EC99E0215080409040E1F7A7
S113027000C0000004C010920A0110920501809190
S1130280040190E0019683709078992324F40197F7
S11302908C6F9F6F019680930401FF91EF91BF9142
S11302A0AF919F918F912F910F900FBE0F901F9040
S11302B01895880F8093BA0085E48093BC00089554
S11302C095B1946095B9823351F42FEF80E792E0B1
S11302D0215080409040E1F700C0000021C08436E6
S11302E051F42FEF81EE94E0215080409040E1F7EB
S11302F000C0000015C0883C51F42FEF83EC99E056
S1130300215080409040E1F700C0000009C02FEF69
S113031081EE94E0215080409040E1F700C000005D
S113032085B18B7F85B9089595B19E7F95B920E0FD
S113033019C095B1916095B93FEF43EC99E0315004
S113034040409040E1F700C0000095B19E7F95B910
S11303503FEF43EC99E0315040409040E1F700C05A
S113036000002F5F281728F308958BB18F7E8BB977
S11303702AE02A95F1F700C08BB180618BB985E33F
S11303808A95F1F700008BB18F7E8BB980E090E005
S113039009C0813325E7920708F5019625E02A95DF
S11303A0F1F700004D9BF5CF20E030E00AC02F5F4D
S11303B03F4F85E08A95F1F70000213385E7380740
S11303C080F44D99F4CFAFE9B6E40E94F40392951A
S11303D082958F7089279F708927089580E090E027
S11303E0089580E090E0089585B1816085B92FEF8C
S11303F089E698E1215080409040E1F700C0000078
S113040085B18E7F85B985B1826085B92FEF89E684
S113041098E1215080409040E1F700C0000085B190
S11304208D7F85B985B1846085B92FEF83EC99E020
S1130430215080409040E1F700C0000085B18B7FDF
S113044085B92FEF83EC99E0215080409040E1F78B
S113045000C0000085B1846085B92FEF83EC99E07A
S1130460215080409040E1F700C0000085B18B7FAF
S113047085B90E94B501089584B1816084B984B1BD
S1130480826084B984B1846084B98AB180618AB994
S11304908AB18F7D8AB985B18E7F85B985B18D7F0B
S11304A085B985B18B7F85B98BB18F7E8BB980E19E
S11304B00E945901109280008BE08093810083EDAB
S11304C090E39093890080938800EFE6F0E08081C8
S11304D08260808378941092090110920A0110922C
S11304E005010E94F40108951092060181E08093B1
S11304F0050180930A018093000185B1846085B968
S11305002FEF83EC99E0215080409040E1F700C048
S1130510000085B18B7F85B92FEF81EE94E02150E7
S113052080409040E1F700C0000085B1846085B947
S11305302FEF81EE94E0215080409040E1F700C01D
S1130540000085B18B7F85B9089510920501109242
S11305500A011092000185B18B7F85B908951F921D
S11305600F920FB60F9211242F933F934F935F93E3
S11305706F937F938F939F93AF93BF93EF93FF9367
S11305808091B900887F803889F030F4882309F499
S11305906AC0803641F06BC0883A09F448C0883B91
S11305A009F453C064C01092020166C08091020134
S11305B0811108C08091BB0080930D0181E080937C
S11305C002015AC0813009F057C08091BB0080936A
S11305D00C0181E080930B011092020180910D01C6
S11305E0833021F485B1826085B946C080910D01C4
S11305F0843021F485B18D7F85B93EC080910D0191
S1130600873019F40E94740237C080910D0188303C
S113061019F40E94A50230C080910D018B3061F560
S11306200E94B501909308018093070125C0809131
S11306300D018B3039F4809107019091080180936A
S1130640BB001AC01092BB0017C080910D018B3003
S113065039F480910701909108019093BB000CC07C
S11306601092BB0009C085E98093BC0005C0ECEB87
S1130670F0E080818068808385EC8093BC00FF91EA
S1130680EF91BF91AF919F918F917F916F915F9106
S11306904F913F912F910F900FBE0F901F9018957F
S11306A084E60E9460012FEF80E792E021508040B1
S11306B09040E1F700C0000084E60E9460012FEF43
S11306C080E792E0215080409040E1F700C00000B4
S11306D088EC0E9460010895E0910D018E2F90E056
S11306E08B30910508F051C0FC01E45CFF4F0C9481
S11306F0EE0385B18E7F85B91092090146C085B19C
S1130700816085B942C085B1826085B93EC085B13A
S11307108D7F85B93AC081E08093090183E00E940E
S1130720940133C083E00E9494012FC00E9474029C
S11307302CC00E94A50229C085B18E7F85B90E9474
S1130740500323C095B1916095B995B1926095B964
S11307502FEF35EA9EE0215030409040E1F700C091
S1130760000095B19E7F95B995B19D7F95B92FEF06
S113077035EA9EE0215030409040E1F700C000008F
S11307808F5F01C080E08230E8F210920B0108957F
S11307900E943C0280910B0181110E946C038091A4
S11307A009018823B9F32899F5CF85B1816085B90A
S11307B02FEF89E698E1215080409040E1F700C096
S11307C0000085B18E7F85B92FEF89E698E121502D
S11307D080409040E1F700C00000DCCFEE0FFF1F27
S11307E00590F491E02D0994A29FB001B39FC0013C
S11307F0A39F700D811D1124911DB29F700D811D49
S10D08001124911D0895F894FFCF10
S105080A0100E7
S9030000FC
